{
  "contractName": "Asignatura",
  "abi": [
    {
      "inputs": [
        {
          "internalType": "string",
          "name": "_nombre",
          "type": "string"
        },
        {
          "internalType": "string",
          "name": "_curso",
          "type": "string"
        }
      ],
      "stateMutability": "nonpayable",
      "type": "constructor"
    },
    {
      "inputs": [
        {
          "internalType": "string",
          "name": "dni",
          "type": "string"
        }
      ],
      "name": "DNIDuplicadoError",
      "type": "error"
    },
    {
      "inputs": [
        {
          "internalType": "address",
          "name": "",
          "type": "address"
        },
        {
          "internalType": "uint256",
          "name": "",
          "type": "uint256"
        }
      ],
      "name": "calificaciones",
      "outputs": [
        {
          "internalType": "enum Asignatura.TipoNota",
          "name": "tipo",
          "type": "uint8"
        },
        {
          "internalType": "uint256",
          "name": "calificacion",
          "type": "uint256"
        }
      ],
      "stateMutability": "view",
      "type": "function",
      "constant": true
    },
    {
      "inputs": [],
      "name": "cerrada",
      "outputs": [
        {
          "internalType": "bool",
          "name": "",
          "type": "bool"
        }
      ],
      "stateMutability": "view",
      "type": "function",
      "constant": true
    },
    {
      "inputs": [],
      "name": "coordinador",
      "outputs": [
        {
          "internalType": "address",
          "name": "",
          "type": "address"
        }
      ],
      "stateMutability": "view",
      "type": "function",
      "constant": true
    },
    {
      "inputs": [],
      "name": "curso",
      "outputs": [
        {
          "internalType": "string",
          "name": "",
          "type": "string"
        }
      ],
      "stateMutability": "view",
      "type": "function",
      "constant": true
    },
    {
      "inputs": [
        {
          "internalType": "address",
          "name": "",
          "type": "address"
        }
      ],
      "name": "datosAlumno",
      "outputs": [
        {
          "internalType": "string",
          "name": "nombre",
          "type": "string"
        },
        {
          "internalType": "string",
          "name": "dni",
          "type": "string"
        },
        {
          "internalType": "string",
          "name": "email",
          "type": "string"
        }
      ],
      "stateMutability": "view",
      "type": "function",
      "constant": true
    },
    {
      "inputs": [
        {
          "internalType": "address",
          "name": "",
          "type": "address"
        }
      ],
      "name": "datosProfesor",
      "outputs": [
        {
          "internalType": "string",
          "name": "",
          "type": "string"
        }
      ],
      "stateMutability": "view",
      "type": "function",
      "constant": true
    },
    {
      "inputs": [
        {
          "internalType": "string",
          "name": "",
          "type": "string"
        }
      ],
      "name": "dniUsados",
      "outputs": [
        {
          "internalType": "address",
          "name": "",
          "type": "address"
        }
      ],
      "stateMutability": "view",
      "type": "function",
      "constant": true
    },
    {
      "inputs": [
        {
          "internalType": "uint256",
          "name": "",
          "type": "uint256"
        }
      ],
      "name": "evaluaciones",
      "outputs": [
        {
          "internalType": "string",
          "name": "nombre",
          "type": "string"
        },
        {
          "internalType": "uint256",
          "name": "fecha",
          "type": "uint256"
        },
        {
          "internalType": "uint256",
          "name": "porcentaje",
          "type": "uint256"
        },
        {
          "internalType": "uint256",
          "name": "minimo",
          "type": "uint256"
        }
      ],
      "stateMutability": "view",
      "type": "function",
      "constant": true
    },
    {
      "inputs": [
        {
          "internalType": "uint256",
          "name": "",
          "type": "uint256"
        }
      ],
      "name": "matriculas",
      "outputs": [
        {
          "internalType": "address",
          "name": "",
          "type": "address"
        }
      ],
      "stateMutability": "view",
      "type": "function",
      "constant": true
    },
    {
      "inputs": [],
      "name": "nombre",
      "outputs": [
        {
          "internalType": "string",
          "name": "",
          "type": "string"
        }
      ],
      "stateMutability": "view",
      "type": "function",
      "constant": true
    },
    {
      "inputs": [],
      "name": "owner",
      "outputs": [
        {
          "internalType": "address",
          "name": "",
          "type": "address"
        }
      ],
      "stateMutability": "view",
      "type": "function",
      "constant": true
    },
    {
      "inputs": [
        {
          "internalType": "uint256",
          "name": "",
          "type": "uint256"
        }
      ],
      "name": "profesores",
      "outputs": [
        {
          "internalType": "address",
          "name": "",
          "type": "address"
        }
      ],
      "stateMutability": "view",
      "type": "function",
      "constant": true
    },
    {
      "inputs": [],
      "name": "version",
      "outputs": [
        {
          "internalType": "string",
          "name": "",
          "type": "string"
        }
      ],
      "stateMutability": "view",
      "type": "function",
      "constant": true
    },
    {
      "stateMutability": "payable",
      "type": "receive",
      "payable": true
    },
    {
      "inputs": [
        {
          "internalType": "address",
          "name": "addr",
          "type": "address"
        }
      ],
      "name": "setCoordinador",
      "outputs": [],
      "stateMutability": "nonpayable",
      "type": "function"
    },
    {
      "inputs": [],
      "name": "cerrar",
      "outputs": [],
      "stateMutability": "nonpayable",
      "type": "function"
    },
    {
      "inputs": [
        {
          "internalType": "address",
          "name": "_addr",
          "type": "address"
        },
        {
          "internalType": "string",
          "name": "_nombre",
          "type": "string"
        }
      ],
      "name": "addProfesor",
      "outputs": [],
      "stateMutability": "nonpayable",
      "type": "function"
    },
    {
      "inputs": [
        {
          "internalType": "string",
          "name": "_nombre",
          "type": "string"
        },
        {
          "internalType": "string",
          "name": "_dni",
          "type": "string"
        },
        {
          "internalType": "string",
          "name": "_email",
          "type": "string"
        }
      ],
      "name": "automatricula",
      "outputs": [],
      "stateMutability": "nonpayable",
      "type": "function"
    },
    {
      "inputs": [
        {
          "internalType": "address",
          "name": "_addr",
          "type": "address"
        },
        {
          "internalType": "string",
          "name": "_nombre",
          "type": "string"
        },
        {
          "internalType": "string",
          "name": "_dni",
          "type": "string"
        },
        {
          "internalType": "string",
          "name": "_email",
          "type": "string"
        }
      ],
      "name": "matricular",
      "outputs": [],
      "stateMutability": "nonpayable",
      "type": "function"
    },
    {
      "inputs": [],
      "name": "matriculasLength",
      "outputs": [
        {
          "internalType": "uint256",
          "name": "",
          "type": "uint256"
        }
      ],
      "stateMutability": "view",
      "type": "function",
      "constant": true
    },
    {
      "inputs": [],
      "name": "quienSoy",
      "outputs": [
        {
          "internalType": "string",
          "name": "_nombre",
          "type": "string"
        },
        {
          "internalType": "string",
          "name": "_dni",
          "type": "string"
        },
        {
          "internalType": "string",
          "name": "_email",
          "type": "string"
        }
      ],
      "stateMutability": "view",
      "type": "function",
      "constant": true
    },
    {
      "inputs": [
        {
          "internalType": "string",
          "name": "_nombre",
          "type": "string"
        },
        {
          "internalType": "uint256",
          "name": "_fecha",
          "type": "uint256"
        },
        {
          "internalType": "uint256",
          "name": "_porcentaje",
          "type": "uint256"
        },
        {
          "internalType": "uint256",
          "name": "_minimo",
          "type": "uint256"
        }
      ],
      "name": "creaEvaluacion",
      "outputs": [
        {
          "internalType": "uint256",
          "name": "",
          "type": "uint256"
        }
      ],
      "stateMutability": "nonpayable",
      "type": "function"
    },
    {
      "inputs": [
        {
          "internalType": "uint256",
          "name": "_posicion",
          "type": "uint256"
        },
        {
          "internalType": "string",
          "name": "_nombre",
          "type": "string"
        },
        {
          "internalType": "uint256",
          "name": "_fecha",
          "type": "uint256"
        },
        {
          "internalType": "uint256",
          "name": "_porcentaje",
          "type": "uint256"
        },
        {
          "internalType": "uint256",
          "name": "_minimo",
          "type": "uint256"
        }
      ],
      "name": "cambiarEvaluacion",
      "outputs": [],
      "stateMutability": "nonpayable",
      "type": "function"
    },
    {
      "inputs": [],
      "name": "evaluacionesLength",
      "outputs": [
        {
          "internalType": "uint256",
          "name": "",
          "type": "uint256"
        }
      ],
      "stateMutability": "view",
      "type": "function",
      "constant": true
    },
    {
      "inputs": [
        {
          "internalType": "address",
          "name": "alumno",
          "type": "address"
        },
        {
          "internalType": "uint256",
          "name": "evaluacion",
          "type": "uint256"
        },
        {
          "internalType": "enum Asignatura.TipoNota",
          "name": "tipo",
          "type": "uint8"
        },
        {
          "internalType": "uint256",
          "name": "calificacion",
          "type": "uint256"
        }
      ],
      "name": "califica",
      "outputs": [],
      "stateMutability": "nonpayable",
      "type": "function"
    },
    {
      "inputs": [
        {
          "internalType": "uint256",
          "name": "evaluacion",
          "type": "uint256"
        }
      ],
      "name": "miNota",
      "outputs": [
        {
          "internalType": "enum Asignatura.TipoNota",
          "name": "tipo",
          "type": "uint8"
        },
        {
          "internalType": "uint256",
          "name": "calificacion",
          "type": "uint256"
        }
      ],
      "stateMutability": "view",
      "type": "function",
      "constant": true
    },
    {
      "inputs": [],
      "name": "miNotaFinal",
      "outputs": [
        {
          "internalType": "enum Asignatura.TipoNota",
          "name": "tipo",
          "type": "uint8"
        },
        {
          "internalType": "uint256",
          "name": "calificacion",
          "type": "uint256"
        }
      ],
      "stateMutability": "view",
      "type": "function",
      "constant": true
    },
    {
      "inputs": [
        {
          "internalType": "address",
          "name": "_addr",
          "type": "address"
        }
      ],
      "name": "notaFinal",
      "outputs": [
        {
          "internalType": "enum Asignatura.TipoNota",
          "name": "tipo",
          "type": "uint8"
        },
        {
          "internalType": "uint256",
          "name": "calificacion",
          "type": "uint256"
        }
      ],
      "stateMutability": "view",
      "type": "function",
      "constant": true
    },
    {
      "inputs": [],
      "name": "profesoresLength",
      "outputs": [
        {
          "internalType": "uint256",
          "name": "",
          "type": "uint256"
        }
      ],
      "stateMutability": "view",
      "type": "function",
      "constant": true
    },
    {
      "inputs": [],
      "name": "senderMsg",
      "outputs": [
        {
          "internalType": "address",
          "name": "",
          "type": "address"
        }
      ],
      "stateMutability": "view",
      "type": "function",
      "constant": true
    }
  ],
  "bytecode": "0x60806040526040518060400160405280600981526020017f323032322046756c6c0000000000000000000000000000000000000000000000815250600090816200004a9190620003f3565b503480156200005857600080fd5b50604051620043133803806200431383398181016040528101906200007e91906200063e565b6000825103620000c5576040517f08c379a0000000000000000000000000000000000000000000000000000000008152600401620000bc9062000724565b60405180910390fd5b60008151036200010c576040517f08c379a0000000000000000000000000000000000000000000000000000000008152600401620001039062000796565b60405180910390fd5b81600290816200011d9190620003f3565b5080600390816200012f9190620003f3565b5033600160006101000a81548173ffffffffffffffffffffffffffffffffffffffff021916908373ffffffffffffffffffffffffffffffffffffffff1602179055505050620007b8565b600081519050919050565b7f4e487b7100000000000000000000000000000000000000000000000000000000600052604160045260246000fd5b7f4e487b7100000000000000000000000000000000000000000000000000000000600052602260045260246000fd5b60006002820490506001821680620001fb57607f821691505b602082108103620002115762000210620001b3565b5b50919050565b60008190508160005260206000209050919050565b60006020601f8301049050919050565b600082821b905092915050565b6000600883026200027b7fffffffffffffffffffffffffffffffffffffffffffffffffffffffffffffffff826200023c565b6200028786836200023c565b95508019841693508086168417925050509392505050565b6000819050919050565b6000819050919050565b6000620002d4620002ce620002c8846200029f565b620002a9565b6200029f565b9050919050565b6000819050919050565b620002f083620002b3565b62000308620002ff82620002db565b84845462000249565b825550505050565b600090565b6200031f62000310565b6200032c818484620002e5565b505050565b5b8181101562000354576200034860008262000315565b60018101905062000332565b5050565b601f821115620003a3576200036d8162000217565b62000378846200022c565b8101602085101562000388578190505b620003a062000397856200022c565b83018262000331565b50505b505050565b600082821c905092915050565b6000620003c860001984600802620003a8565b1980831691505092915050565b6000620003e38383620003b5565b9150826002028217905092915050565b620003fe8262000179565b67ffffffffffffffff8111156200041a576200041962000184565b5b620004268254620001e2565b6200043382828562000358565b600060209050601f8311600181146200046b576000841562000456578287015190505b620004628582620003d5565b865550620004d2565b601f1984166200047b8662000217565b60005b82811015620004a5578489015182556001820191506020850194506020810190506200047e565b86831015620004c55784890151620004c1601f891682620003b5565b8355505b6001600288020188555050505b505050505050565b6000604051905090565b600080fd5b600080fd5b600080fd5b600080fd5b6000601f19601f8301169050919050565b6200051482620004f8565b810181811067ffffffffffffffff8211171562000536576200053562000184565b5b80604052505050565b60006200054b620004da565b905062000559828262000509565b919050565b600067ffffffffffffffff8211156200057c576200057b62000184565b5b6200058782620004f8565b9050602081019050919050565b60005b83811015620005b457808201518184015260208101905062000597565b60008484015250505050565b6000620005d7620005d1846200055e565b6200053f565b905082815260208101848484011115620005f657620005f5620004f3565b5b6200060384828562000594565b509392505050565b600082601f830112620006235762000622620004ee565b5b815162000635848260208601620005c0565b91505092915050565b60008060408385031215620006585762000657620004e4565b5b600083015167ffffffffffffffff811115620006795762000678620004e9565b5b62000687858286016200060b565b925050602083015167ffffffffffffffff811115620006ab57620006aa620004e9565b5b620006b9858286016200060b565b9150509250929050565b600082825260208201905092915050565b7f6e6f6d627265206e6f2070756564652073657220766163696f00000000000000600082015250565b60006200070c601983620006c3565b91506200071982620006d4565b602082019050919050565b600060208201905081810360008301526200073f81620006fd565b9050919050565b7f637572736f206e6f2070756564652073657220766163696f0000000000000000600082015250565b60006200077e601883620006c3565b91506200078b8262000746565b602082019050919050565b60006020820190508181036000830152620007b1816200076f565b9050919050565b613b4b80620007c86000396000f3fe6080604052600436106101c65760003560e01c8063681d4ca6116100f7578063c837375011610095578063d51b458411610064578063d51b4584146106f3578063dab6ff281461071c578063deafcc4114610733578063f967f9861461075e57610206565b8063c837375014610623578063d00de47a14610660578063d1f4a8e71461068c578063d27c3f3c146106b557610206565b80638da5cb5b116100d15780638da5cb5b146105655780639e1d8f4b14610590578063bc7b35b2146105bb578063c7918139146105e657610206565b8063681d4ca6146104d25780636bf8aad6146104fb5780637810ff1e1461053a57610206565b806347ba31da11610164578063537668831161013e57806353766883146103ff57806354fd4d501461042c5780635aa4ffe614610457578063641945bf1461049557610206565b806347ba31da1461036e578063488cf4f514610397578063526a8ec6146103c257610206565b806330322c9b116101a057806330322c9b1461029c57806331431f58146102c557806342a6dde2146102f057806344f7a8cc1461032e57610206565b8063034856d71461020b5780631d2e4d2b1461024857806322c4e3941461027157610206565b36610206576040517f08c379a00000000000000000000000000000000000000000000000000000000081526004016101fd9061262f565b60405180910390fd5b600080fd5b34801561021757600080fd5b50610232600480360381019061022d91906127df565b610789565b60405161023f9190612871565b60405180910390f35b34801561025457600080fd5b5061026f600480360381019061026a91906128ea565b61094d565b005b34801561027d57600080fd5b50610286610bb3565b6040516102939190612961565b60405180910390f35b3480156102a857600080fd5b506102c360048036038101906102be91906129a1565b610bc6565b005b3480156102d157600080fd5b506102da610ebb565b6040516102e79190612a17565b60405180910390f35b3480156102fc57600080fd5b5061031760048036038101906103129190612a32565b610ec3565b604051610325929190612ae9565b60405180910390f35b34801561033a57600080fd5b5061035560048036038101906103509190612b12565b610f01565b6040516103659493929190612bad565b60405180910390f35b34801561037a57600080fd5b5061039560048036038101906103909190612bf9565b610fc9565b005b3480156103a357600080fd5b506103ac611104565b6040516103b99190612871565b60405180910390f35b3480156103ce57600080fd5b506103e960048036038101906103e49190612cb4565b611111565b6040516103f69190612a17565b60405180910390f35b34801561040b57600080fd5b5061041461115a565b60405161042393929190612cfd565b60405180910390f35b34801561043857600080fd5b506104416113c6565b60405161044e9190612d49565b60405180910390f35b34801561046357600080fd5b5061047e60048036038101906104799190612d6b565b611454565b60405161048c929190612ae9565b60405180910390f35b3480156104a157600080fd5b506104bc60048036038101906104b79190612d6b565b611469565b6040516104c99190612d49565b60405180910390f35b3480156104de57600080fd5b506104f960048036038101906104f49190612d98565b611509565b005b34801561050757600080fd5b50610522600480360381019061051d9190612d6b565b6115b3565b60405161053193929190612cfd565b60405180910390f35b34801561054657600080fd5b5061054f611775565b60405161055c9190612a17565b60405180910390f35b34801561057157600080fd5b5061057a61179b565b6040516105879190612a17565b60405180910390f35b34801561059c57600080fd5b506105a56117c1565b6040516105b29190612871565b60405180910390f35b3480156105c757600080fd5b506105d06117ce565b6040516105dd9190612d49565b60405180910390f35b3480156105f257600080fd5b5061060d60048036038101906106089190612b12565b61185c565b60405161061a9190612a17565b60405180910390f35b34801561062f57600080fd5b5061064a60048036038101906106459190612b12565b61189b565b6040516106579190612a17565b60405180910390f35b34801561066c57600080fd5b506106756118da565b604051610683929190612ae9565b60405180910390f35b34801561069857600080fd5b506106b360048036038101906106ae9190612e3f565b611936565b005b3480156106c157600080fd5b506106dc60048036038101906106d79190612b12565b611adb565b6040516106ea929190612ae9565b60405180910390f35b3480156106ff57600080fd5b5061071a60048036038101906107159190612d6b565b611c25565b005b34801561072857600080fd5b50610731611d49565b005b34801561073f57600080fd5b50610748611df6565b6040516107559190612d49565b60405180910390f35b34801561076a57600080fd5b50610773611e84565b6040516107809190612871565b60405180910390f35b6000600460009054906101000a900473ffffffffffffffffffffffffffffffffffffffff1673ffffffffffffffffffffffffffffffffffffffff163373ffffffffffffffffffffffffffffffffffffffff161461081b576040517f08c379a000000000000000000000000000000000000000000000000000000000815260040161081290612f22565b60405180910390fd5b600460149054906101000a900460ff161561086b576040517f08c379a000000000000000000000000000000000000000000000000000000000815260040161086290612fb4565b60405180910390fd5b60008551036108af576040517f08c379a00000000000000000000000000000000000000000000000000000000081526004016108a690613046565b60405180910390fd5b600a604051806080016040528087815260200186815260200185815260200184815250908060018154018082558091505060019003906000526020600020906004020160009091909190915060008201518160000190816109109190613272565b5060208201518160010155604082015181600201556060820151816003015550506001600a805490506109439190613373565b9050949350505050565b600160009054906101000a900473ffffffffffffffffffffffffffffffffffffffff1673ffffffffffffffffffffffffffffffffffffffff163373ffffffffffffffffffffffffffffffffffffffff16146109dd576040517f08c379a00000000000000000000000000000000000000000000000000000000081526004016109d4906133f3565b60405180910390fd5b600460149054906101000a900460ff1615610a2d576040517f08c379a0000000000000000000000000000000000000000000000000000000008152600401610a2490612fb4565b60405180910390fd5b6000600560008473ffffffffffffffffffffffffffffffffffffffff1673ffffffffffffffffffffffffffffffffffffffff1681526020019081526020016000208054610a7990613095565b905014610abb576040517f08c379a0000000000000000000000000000000000000000000000000000000008152600401610ab29061345f565b60405180910390fd5b6000815103610aff576040517f08c379a0000000000000000000000000000000000000000000000000000000008152600401610af6906134f1565b60405180910390fd5b80600560008473ffffffffffffffffffffffffffffffffffffffff1673ffffffffffffffffffffffffffffffffffffffff1681526020019081526020016000209081610b4b9190613272565b506006829080600181540180825580915050600190039060005260206000200160009091909190916101000a81548173ffffffffffffffffffffffffffffffffffffffff021916908373ffffffffffffffffffffffffffffffffffffffff1602179055505050565b600460149054906101000a900460ff1681565b6000600560003373ffffffffffffffffffffffffffffffffffffffff1673ffffffffffffffffffffffffffffffffffffffff1681526020019081526020016000208054610c1290613095565b80601f0160208091040260200160405190810160405280929190818152602001828054610c3e90613095565b8015610c8b5780601f10610c6057610100808354040283529160200191610c8b565b820191906000526020600020905b815481529060010190602001808311610c6e57829003601f168201915b505050505090506000815103610cd6576040517f08c379a0000000000000000000000000000000000000000000000000000000008152600401610ccd9061355d565b60405180910390fd5b600460149054906101000a900460ff1615610d26576040517f08c379a0000000000000000000000000000000000000000000000000000000008152600401610d1d90612fb4565b60405180910390fd5b610d2f85611e91565b610d6e576040517f08c379a0000000000000000000000000000000000000000000000000000000008152600401610d65906135c9565b60405180910390fd5b600a805490508410610db5576040517f08c379a0000000000000000000000000000000000000000000000000000000008152600401610dac90613635565b60405180910390fd5b6103e8821115610dfa576040517f08c379a0000000000000000000000000000000000000000000000000000000008152600401610df1906136c7565b60405180910390fd5b60006040518060400160405280856002811115610e1a57610e19612a72565b5b815260200184815250905080600b60008873ffffffffffffffffffffffffffffffffffffffff1673ffffffffffffffffffffffffffffffffffffffff168152602001908152602001600020600087815260200190815260200160002060008201518160000160006101000a81548160ff02191690836002811115610ea157610ea0612a72565b5b021790555060208201518160010155905050505050505050565b600033905090565b600b602052816000526040600020602052806000526040600020600091509150508060000160009054906101000a900460ff16908060010154905082565b600a8181548110610f1157600080fd5b9060005260206000209060040201600091509050806000018054610f3490613095565b80601f0160208091040260200160405190810160405280929190818152602001828054610f6090613095565b8015610fad5780601f10610f8257610100808354040283529160200191610fad565b820191906000526020600020905b815481529060010190602001808311610f9057829003601f168201915b5050505050908060010154908060020154908060030154905084565b600160009054906101000a900473ffffffffffffffffffffffffffffffffffffffff1673ffffffffffffffffffffffffffffffffffffffff163373ffffffffffffffffffffffffffffffffffffffff1614611059576040517f08c379a0000000000000000000000000000000000000000000000000000000008152600401611050906133f3565b60405180910390fd5b61106233611e91565b156110a2576040517f08c379a000000000000000000000000000000000000000000000000000000000815260040161109990613759565b60405180910390fd5b600460149054906101000a900460ff16156110f2576040517f08c379a00000000000000000000000000000000000000000000000000000000081526004016110e990612fb4565b60405180910390fd5b6110fe84848484611f6f565b50505050565b6000600a80549050905090565b6008818051602081018201805184825260208301602085012081835280955050505050506000915054906101000a900473ffffffffffffffffffffffffffffffffffffffff1681565b606080606061116833611e91565b6111a7576040517f08c379a000000000000000000000000000000000000000000000000000000000815260040161119e906137eb565b60405180910390fd5b6000600760003373ffffffffffffffffffffffffffffffffffffffff1673ffffffffffffffffffffffffffffffffffffffff16815260200190815260200160002060405180606001604052908160008201805461120390613095565b80601f016020809104026020016040519081016040528092919081815260200182805461122f90613095565b801561127c5780601f106112515761010080835404028352916020019161127c565b820191906000526020600020905b81548152906001019060200180831161125f57829003601f168201915b5050505050815260200160018201805461129590613095565b80601f01602080910402602001604051908101604052809291908181526020018280546112c190613095565b801561130e5780601f106112e35761010080835404028352916020019161130e565b820191906000526020600020905b8154815290600101906020018083116112f157829003601f168201915b5050505050815260200160028201805461132790613095565b80601f016020809104026020016040519081016040528092919081815260200182805461135390613095565b80156113a05780601f10611375576101008083540402835291602001916113a0565b820191906000526020600020905b81548152906001019060200180831161138357829003601f168201915b505050505081525050905080600001519350806020015192508060400151915050909192565b600080546113d390613095565b80601f01602080910402602001604051908101604052809291908181526020018280546113ff90613095565b801561144c5780601f106114215761010080835404028352916020019161144c565b820191906000526020600020905b81548152906001019060200180831161142f57829003601f168201915b505050505081565b600080611460836122aa565b91509150915091565b6005602052806000526040600020600091509050805461148890613095565b80601f01602080910402602001604051908101604052809291908181526020018280546114b490613095565b80156115015780601f106114d657610100808354040283529160200191611501565b820191906000526020600020905b8154815290600101906020018083116114e457829003601f168201915b505050505081565b61151233611e91565b15611552576040517f08c379a000000000000000000000000000000000000000000000000000000000815260040161154990613759565b60405180910390fd5b600460149054906101000a900460ff16156115a2576040517f08c379a000000000000000000000000000000000000000000000000000000000815260040161159990612fb4565b60405180910390fd5b6115ae33848484611f6f565b505050565b60076020528060005260406000206000915090508060000180546115d690613095565b80601f016020809104026020016040519081016040528092919081815260200182805461160290613095565b801561164f5780601f106116245761010080835404028352916020019161164f565b820191906000526020600020905b81548152906001019060200180831161163257829003601f168201915b50505050509080600101805461166490613095565b80601f016020809104026020016040519081016040528092919081815260200182805461169090613095565b80156116dd5780601f106116b2576101008083540402835291602001916116dd565b820191906000526020600020905b8154815290600101906020018083116116c057829003601f168201915b5050505050908060020180546116f290613095565b80601f016020809104026020016040519081016040528092919081815260200182805461171e90613095565b801561176b5780601f106117405761010080835404028352916020019161176b565b820191906000526020600020905b81548152906001019060200180831161174e57829003601f168201915b5050505050905083565b600460009054906101000a900473ffffffffffffffffffffffffffffffffffffffff1681565b600160009054906101000a900473ffffffffffffffffffffffffffffffffffffffff1681565b6000600980549050905090565b600280546117db90613095565b80601f016020809104026020016040519081016040528092919081815260200182805461180790613095565b80156118545780601f1061182957610100808354040283529160200191611854565b820191906000526020600020905b81548152906001019060200180831161183757829003601f168201915b505050505081565b6009818154811061186c57600080fd5b906000526020600020016000915054906101000a900473ffffffffffffffffffffffffffffffffffffffff1681565b600681815481106118ab57600080fd5b906000526020600020016000915054906101000a900473ffffffffffffffffffffffffffffffffffffffff1681565b6000806118e633611e91565b611925576040517f08c379a000000000000000000000000000000000000000000000000000000000815260040161191c906137eb565b60405180910390fd5b61192e336122aa565b915091509091565b600460009054906101000a900473ffffffffffffffffffffffffffffffffffffffff1673ffffffffffffffffffffffffffffffffffffffff163373ffffffffffffffffffffffffffffffffffffffff16146119c6576040517f08c379a00000000000000000000000000000000000000000000000000000000081526004016119bd90612f22565b60405180910390fd5b600460149054906101000a900460ff1615611a16576040517f08c379a0000000000000000000000000000000000000000000000000000000008152600401611a0d90612fb4565b60405180910390fd5b6000845103611a5a576040517f08c379a0000000000000000000000000000000000000000000000000000000008152600401611a5190613046565b60405180910390fd5b604051806080016040528085815260200184815260200183815260200182815250600a8681548110611a8f57611a8e61380b565b5b90600052602060002090600402016000820151816000019081611ab29190613272565b506020820151816001015560408201518160020155606082015181600301559050505050505050565b600080611ae733611e91565b611b26576040517f08c379a0000000000000000000000000000000000000000000000000000000008152600401611b1d906137eb565b60405180910390fd5b600a805490508310611b6d576040517f08c379a0000000000000000000000000000000000000000000000000000000008152600401611b64906138ac565b60405180910390fd5b6000600b60003373ffffffffffffffffffffffffffffffffffffffff1673ffffffffffffffffffffffffffffffffffffffff16815260200190815260200160002060008581526020019081526020016000206040518060400160405290816000820160009054906101000a900460ff166002811115611bef57611bee612a72565b5b6002811115611c0157611c00612a72565b5b81526020016001820154815250509050806000015192508060200151915050915091565b600160009054906101000a900473ffffffffffffffffffffffffffffffffffffffff1673ffffffffffffffffffffffffffffffffffffffff163373ffffffffffffffffffffffffffffffffffffffff1614611cb5576040517f08c379a0000000000000000000000000000000000000000000000000000000008152600401611cac906133f3565b60405180910390fd5b600460149054906101000a900460ff1615611d05576040517f08c379a0000000000000000000000000000000000000000000000000000000008152600401611cfc90612fb4565b60405180910390fd5b80600460006101000a81548173ffffffffffffffffffffffffffffffffffffffff021916908373ffffffffffffffffffffffffffffffffffffffff16021790555050565b600460009054906101000a900473ffffffffffffffffffffffffffffffffffffffff1673ffffffffffffffffffffffffffffffffffffffff163373ffffffffffffffffffffffffffffffffffffffff1614611dd9576040517f08c379a0000000000000000000000000000000000000000000000000000000008152600401611dd090612f22565b60405180910390fd5b6001600460146101000a81548160ff021916908315150217905550565b60038054611e0390613095565b80601f0160208091040260200160405190810160405280929190818152602001828054611e2f90613095565b8015611e7c5780601f10611e5157610100808354040283529160200191611e7c565b820191906000526020600020905b815481529060010190602001808311611e5f57829003601f168201915b505050505081565b6000600680549050905090565b600080600760008473ffffffffffffffffffffffffffffffffffffffff1673ffffffffffffffffffffffffffffffffffffffff1681526020019081526020016000206000018054611ee190613095565b80601f0160208091040260200160405190810160405280929190818152602001828054611f0d90613095565b8015611f5a5780601f10611f2f57610100808354040283529160200191611f5a565b820191906000526020600020905b815481529060010190602001808311611f3d57829003601f168201915b50505050509050600081511415915050919050565b611f7833611e91565b15611fb8576040517f08c379a0000000000000000000000000000000000000000000000000000000008152600401611faf90613759565b60405180910390fd5b600460149054906101000a900460ff1615612008576040517f08c379a0000000000000000000000000000000000000000000000000000000008152600401611fff90612fb4565b60405180910390fd5b600083510361204c576040517f08c379a000000000000000000000000000000000000000000000000000000000815260040161204390613918565b60405180910390fd5b6000825103612090576040517f08c379a000000000000000000000000000000000000000000000000000000000815260040161208790613984565b60405180910390fd5b600073ffffffffffffffffffffffffffffffffffffffff166008836040516120b891906139e0565b908152602001604051809103902060009054906101000a900473ffffffffffffffffffffffffffffffffffffffff1673ffffffffffffffffffffffffffffffffffffffff161461213f57816040517f96ac92d10000000000000000000000000000000000000000000000000000000081526004016121369190612d49565b60405180910390fd5b6000604051806060016040528085815260200184815260200183815250905080600760008773ffffffffffffffffffffffffffffffffffffffff1673ffffffffffffffffffffffffffffffffffffffff16815260200190815260200160002060008201518160000190816121b39190613272565b5060208201518160010190816121c99190613272565b5060408201518160020190816121df9190613272565b50905050846008846040516121f491906139e0565b908152602001604051809103902060006101000a81548173ffffffffffffffffffffffffffffffffffffffff021916908373ffffffffffffffffffffffffffffffffffffffff1602179055506009859080600181540180825580915050600190039060005260206000200160009091909190916101000a81548173ffffffffffffffffffffffffffffffffffffffff021916908373ffffffffffffffffffffffffffffffffffffffff1602179055505050505050565b6000806001915060005b600a8054905081101561240257600060028111156122d5576122d4612a72565b5b600b60008673ffffffffffffffffffffffffffffffffffffffff1673ffffffffffffffffffffffffffffffffffffffff168152602001908152602001600020600083815260200190815260200160002060000160009054906101000a900460ff16600281111561234857612347612a72565b5b0361235a5760008092509250506125a7565b60028081111561236d5761236c612a72565b5b600b60008673ffffffffffffffffffffffffffffffffffffffff1673ffffffffffffffffffffffffffffffffffffffff168152602001908152602001600020600083815260200190815260200160002060000160009054906101000a900460ff1660028111156123e0576123df612a72565b5b036123ee57600292506123ef565b5b80806123fa906139f7565b9150506122b4565b506001600281111561241757612416612a72565b5b82600281111561242a57612429612a72565b5b0361243b57816000915091506125a7565b60008060005b600a8054905081101561258357600a81815481106124625761246161380b565b5b906000526020600020906004020160030154600b60008873ffffffffffffffffffffffffffffffffffffffff1673ffffffffffffffffffffffffffffffffffffffff16815260200190815260200160002060008381526020019081526020016000206001015410156124d357600192505b6064600a82815481106124e9576124e861380b565b5b906000526020600020906004020160020154600b60008973ffffffffffffffffffffffffffffffffffffffff1673ffffffffffffffffffffffffffffffffffffffff1681526020019081526020016000206000848152602001908152602001600020600101546125599190613a3f565b6125639190613ab0565b8261256e9190613ae1565b9150808061257b906139f7565b915050612441565b5081801561259257506101f381115b1561259d576101f390505b6002935080925050505b915091565b600082825260208201905092915050565b7f4e6f207365207065726d697465206c6120726563657063696f6e20646520646960008201527f6e65726f00000000000000000000000000000000000000000000000000000000602082015250565b60006126196024836125ac565b9150612624826125bd565b604082019050919050565b600060208201905081810360008301526126488161260c565b9050919050565b6000604051905090565b600080fd5b600080fd5b600080fd5b600080fd5b6000601f19601f8301169050919050565b7f4e487b7100000000000000000000000000000000000000000000000000000000600052604160045260246000fd5b6126b68261266d565b810181811067ffffffffffffffff821117156126d5576126d461267e565b5b80604052505050565b60006126e861264f565b90506126f482826126ad565b919050565b600067ffffffffffffffff8211156127145761271361267e565b5b61271d8261266d565b9050602081019050919050565b82818337600083830152505050565b600061274c612747846126f9565b6126de565b90508281526020810184848401111561276857612767612668565b5b61277384828561272a565b509392505050565b600082601f8301126127905761278f612663565b5b81356127a0848260208601612739565b91505092915050565b6000819050919050565b6127bc816127a9565b81146127c757600080fd5b50565b6000813590506127d9816127b3565b92915050565b600080600080608085870312156127f9576127f8612659565b5b600085013567ffffffffffffffff8111156128175761281661265e565b5b6128238782880161277b565b9450506020612834878288016127ca565b9350506040612845878288016127ca565b9250506060612856878288016127ca565b91505092959194509250565b61286b816127a9565b82525050565b60006020820190506128866000830184612862565b92915050565b600073ffffffffffffffffffffffffffffffffffffffff82169050919050565b60006128b78261288c565b9050919050565b6128c7816128ac565b81146128d257600080fd5b50565b6000813590506128e4816128be565b92915050565b6000806040838503121561290157612900612659565b5b600061290f858286016128d5565b925050602083013567ffffffffffffffff8111156129305761292f61265e565b5b61293c8582860161277b565b9150509250929050565b60008115159050919050565b61295b81612946565b82525050565b60006020820190506129766000830184612952565b92915050565b6003811061298957600080fd5b50565b60008135905061299b8161297c565b92915050565b600080600080608085870312156129bb576129ba612659565b5b60006129c9878288016128d5565b94505060206129da878288016127ca565b93505060406129eb8782880161298c565b92505060606129fc878288016127ca565b91505092959194509250565b612a11816128ac565b82525050565b6000602082019050612a2c6000830184612a08565b92915050565b60008060408385031215612a4957612a48612659565b5b6000612a57858286016128d5565b9250506020612a68858286016127ca565b9150509250929050565b7f4e487b7100000000000000000000000000000000000000000000000000000000600052602160045260246000fd5b60038110612ab257612ab1612a72565b5b50565b6000819050612ac382612aa1565b919050565b6000612ad382612ab5565b9050919050565b612ae381612ac8565b82525050565b6000604082019050612afe6000830185612ada565b612b0b6020830184612862565b9392505050565b600060208284031215612b2857612b27612659565b5b6000612b36848285016127ca565b91505092915050565b600081519050919050565b60005b83811015612b68578082015181840152602081019050612b4d565b60008484015250505050565b6000612b7f82612b3f565b612b8981856125ac565b9350612b99818560208601612b4a565b612ba28161266d565b840191505092915050565b60006080820190508181036000830152612bc78187612b74565b9050612bd66020830186612862565b612be36040830185612862565b612bf06060830184612862565b95945050505050565b60008060008060808587031215612c1357612c12612659565b5b6000612c21878288016128d5565b945050602085013567ffffffffffffffff811115612c4257612c4161265e565b5b612c4e8782880161277b565b935050604085013567ffffffffffffffff811115612c6f57612c6e61265e565b5b612c7b8782880161277b565b925050606085013567ffffffffffffffff811115612c9c57612c9b61265e565b5b612ca88782880161277b565b91505092959194509250565b600060208284031215612cca57612cc9612659565b5b600082013567ffffffffffffffff811115612ce857612ce761265e565b5b612cf48482850161277b565b91505092915050565b60006060820190508181036000830152612d178186612b74565b90508181036020830152612d2b8185612b74565b90508181036040830152612d3f8184612b74565b9050949350505050565b60006020820190508181036000830152612d638184612b74565b905092915050565b600060208284031215612d8157612d80612659565b5b6000612d8f848285016128d5565b91505092915050565b600080600060608486031215612db157612db0612659565b5b600084013567ffffffffffffffff811115612dcf57612dce61265e565b5b612ddb8682870161277b565b935050602084013567ffffffffffffffff811115612dfc57612dfb61265e565b5b612e088682870161277b565b925050604084013567ffffffffffffffff811115612e2957612e2861265e565b5b612e358682870161277b565b9150509250925092565b600080600080600060a08688031215612e5b57612e5a612659565b5b6000612e69888289016127ca565b955050602086013567ffffffffffffffff811115612e8a57612e8961265e565b5b612e968882890161277b565b9450506040612ea7888289016127ca565b9350506060612eb8888289016127ca565b9250506080612ec9888289016127ca565b9150509295509295909350565b7f536f6c6f207065726d697469646f206120756e20636f6f7264696e61646f7200600082015250565b6000612f0c601f836125ac565b9150612f1782612ed6565b602082019050919050565b60006020820190508181036000830152612f3b81612eff565b9050919050565b7f536f6c6f207065726d697469646f207369206c6120617369676e61747572612060008201527f6e6f206573746120636572726164610000000000000000000000000000000000602082015250565b6000612f9e602f836125ac565b9150612fa982612f42565b604082019050919050565b60006020820190508181036000830152612fcd81612f91565b9050919050565b7f456c206e6f6d627265206465206c61206576616c756163696f6e206e6f20707560008201527f6564652073657220766163696f00000000000000000000000000000000000000602082015250565b6000613030602d836125ac565b915061303b82612fd4565b604082019050919050565b6000602082019050818103600083015261305f81613023565b9050919050565b7f4e487b7100000000000000000000000000000000000000000000000000000000600052602260045260246000fd5b600060028204905060018216806130ad57607f821691505b6020821081036130c0576130bf613066565b5b50919050565b60008190508160005260206000209050919050565b60006020601f8301049050919050565b600082821b905092915050565b6000600883026131287fffffffffffffffffffffffffffffffffffffffffffffffffffffffffffffffff826130eb565b61313286836130eb565b95508019841693508086168417925050509392505050565b6000819050919050565b600061316f61316a613165846127a9565b61314a565b6127a9565b9050919050565b6000819050919050565b61318983613154565b61319d61319582613176565b8484546130f8565b825550505050565b600090565b6131b26131a5565b6131bd818484613180565b505050565b5b818110156131e1576131d66000826131aa565b6001810190506131c3565b5050565b601f821115613226576131f7816130c6565b613200846130db565b8101602085101561320f578190505b61322361321b856130db565b8301826131c2565b50505b505050565b600082821c905092915050565b60006132496000198460080261322b565b1980831691505092915050565b60006132628383613238565b9150826002028217905092915050565b61327b82612b3f565b67ffffffffffffffff8111156132945761329361267e565b5b61329e8254613095565b6132a98282856131e5565b600060209050601f8311600181146132dc57600084156132ca578287015190505b6132d48582613256565b86555061333c565b601f1984166132ea866130c6565b60005b82811015613312578489015182556001820191506020850194506020810190506132ed565b8683101561332f578489015161332b601f891682613238565b8355505b6001600288020188555050505b505050505050565b7f4e487b7100000000000000000000000000000000000000000000000000000000600052601160045260246000fd5b600061337e826127a9565b9150613389836127a9565b92508282039050818111156133a1576133a0613344565b5b92915050565b7f536f6c6f207065726d697469646f20616c206f776e6572000000000000000000600082015250565b60006133dd6017836125ac565b91506133e8826133a7565b602082019050919050565b6000602082019050818103600083015261340c816133d0565b9050919050565b7f50726f6665736f722079612063726561646f0000000000000000000000000000600082015250565b60006134496012836125ac565b915061345482613413565b602082019050919050565b600060208201905081810360008301526134788161343c565b9050919050565b7f4e6f6d6272652064652070726f6665736f72206e6f207075656465207365722060008201527f766163696f000000000000000000000000000000000000000000000000000000602082015250565b60006134db6025836125ac565b91506134e68261347f565b604082019050919050565b6000602082019050818103600083015261350a816134ce565b9050919050565b7f536f6c6f207065726d697469646f206120756e2070726f6665736f7200000000600082015250565b6000613547601c836125ac565b915061355282613511565b602082019050919050565b600060208201905081810360008301526135768161353a565b9050919050565b7f416c756d6e6f206e6f206d6174726963756c61646f2e00000000000000000000600082015250565b60006135b36016836125ac565b91506135be8261357d565b602082019050919050565b600060208201905081810360008301526135e2816135a6565b9050919050565b7f4c61206576616c756163696f6e206e6f206578697374652e0000000000000000600082015250565b600061361f6018836125ac565b915061362a826135e9565b602082019050919050565b6000602082019050818103600083015261364e81613612565b9050919050565b7f4c61206e6f74612073757065726120656c206d6178696d6f207065726d69746960008201527f646f000000000000000000000000000000000000000000000000000000000000602082015250565b60006136b16022836125ac565b91506136bc82613655565b604082019050919050565b600060208201905081810360008301526136e0816136a4565b9050919050565b7f536f6c6f207065726d697469646f206120616c756d6e6f73204e4f206d61747260008201527f6963756c61646f73000000000000000000000000000000000000000000000000602082015250565b60006137436028836125ac565b915061374e826136e7565b604082019050919050565b6000602082019050818103600083015261377281613736565b9050919050565b7f536f6c6f207065726d697469646f206120616c756d6e6f73206d61747269637560008201527f6c61646f73000000000000000000000000000000000000000000000000000000602082015250565b60006137d56025836125ac565b91506137e082613779565b604082019050919050565b60006020820190508181036000830152613804816137c8565b9050919050565b7f4e487b7100000000000000000000000000000000000000000000000000000000600052603260045260246000fd5b7f456c20696e64696365206465206c61206576616c756163696f6e206e6f20657860008201527f697374652e000000000000000000000000000000000000000000000000000000602082015250565b60006138966025836125ac565b91506138a18261383a565b604082019050919050565b600060208201905081810360008301526138c581613889565b9050919050565b7f456c206e6f6d627265206e6f2070756564652073657220766163696f00000000600082015250565b6000613902601c836125ac565b915061390d826138cc565b602082019050919050565b60006020820190508181036000830152613931816138f5565b9050919050565b7f456c20444e49206e6f2070756564652073657220766163696f00000000000000600082015250565b600061396e6019836125ac565b915061397982613938565b602082019050919050565b6000602082019050818103600083015261399d81613961565b9050919050565b600081905092915050565b60006139ba82612b3f565b6139c481856139a4565b93506139d4818560208601612b4a565b80840191505092915050565b60006139ec82846139af565b915081905092915050565b6000613a02826127a9565b91507fffffffffffffffffffffffffffffffffffffffffffffffffffffffffffffffff8203613a3457613a33613344565b5b600182019050919050565b6000613a4a826127a9565b9150613a55836127a9565b9250828202613a63816127a9565b91508282048414831517613a7a57613a79613344565b5b5092915050565b7f4e487b7100000000000000000000000000000000000000000000000000000000600052601260045260246000fd5b6000613abb826127a9565b9150613ac6836127a9565b925082613ad657613ad5613a81565b5b828204905092915050565b6000613aec826127a9565b9150613af7836127a9565b9250828201905080821115613b0f57613b0e613344565b5b9291505056fea26469706673582212208d23db2a2bc7a3e104cab5d7bf131ac6c12e0addcf0b4fdcad6fe1f705c4477664736f6c63430008110033",
  "immutableReferences": {},
  "source": "// SPDX-License-Identifier: UNLICENSED\r\npragma solidity ^0.8.16;\r\n\r\n// Alumnos:\r\n// Juan Francisco Vara Snchez\r\n// Javier Garca Cspedes\r\n// Alvaro de Blas Montalvillo\r\n\r\ncontract Asignatura {\r\n    string public version = \"2022 Full\";\r\n    /**\r\n     * address del usuario que ha desplegado el contrato.\r\n     * El contrato lo delpliega el owner.\r\n     */\r\n    address public owner;\r\n    // Nombre de la asignatura\r\n    string public nombre;\r\n    // Curso acadmico\r\n    string public curso;\r\n    // Coordinador de la asignatura\r\n    address public coordinador;\r\n    // Estado de la asignatura\r\n    bool public cerrada;\r\n    // Acceder al nombre de un profesor dada su direccion\r\n    mapping(address => string) public datosProfesor;\r\n    //Array con las direcciones de los profesores\r\n    address[] public profesores;\r\n\r\n    // Datos de un alumno\r\n    struct DatosAlumno {\r\n        string nombre;\r\n        string dni;\r\n        string email;\r\n    }\r\n    // Acceder a los datos de un alumno dada su direccin\r\n    mapping(address => DatosAlumno) public datosAlumno;\r\n\r\n    /**\r\n     * Valores de DNI usados:\r\n     * Clave -> DNI\r\n     * Valor -> direccin del alumno con ese DNI\r\n     */\r\n    mapping(string => address) public dniUsados;\r\n\r\n    // Array con las direcciones de los alumnos matriculados\r\n    address[] public matriculas;\r\n\r\n    /**\r\n     * Datos de una evaluacion\r\n     */\r\n    struct Evaluacion {\r\n        string nombre;\r\n        uint256 fecha;\r\n        uint256 porcentaje;\r\n        uint256 minimo;\r\n    }\r\n\r\n    // Evaluaciones de la asignatura\r\n    Evaluacion[] public evaluaciones;\r\n\r\n    // Tipos de notas: sin usar, no presentado, y nota normal entre 0 y 1000\r\n    enum TipoNota {\r\n        Empty,\r\n        NP,\r\n        Normal\r\n    }\r\n\r\n    /**\r\n     * Datos de una nota\r\n     * La calificacion esta multiplicada por 100 porque no hay decimales\r\n     */\r\n    struct Nota {\r\n        TipoNota tipo;\r\n        uint256 calificacion;\r\n    }\r\n    // Dado el address del alumno y el indice de evaluacion, decuelve la nota del alumno\r\n    mapping(address => mapping(uint256 => Nota)) public calificaciones;\r\n    // Error usado para indicar que un DNI esta duplicado\r\n    error DNIDuplicadoError(string dni);\r\n\r\n    //CONSTRUCTOR POR REVISAR\r\n    // Storage: variables permanentes; Memory: variables temporales\r\n    constructor(string memory _nombre, string memory _curso) {\r\n        require(bytes(_nombre).length != 0, \"nombre no puede ser vacio\");\r\n        require(bytes(_curso).length != 0, \"curso no puede ser vacio\");\r\n        nombre = _nombre;\r\n        curso = _curso;\r\n        owner = msg.sender; //direccin del que llama al contrato\r\n    }\r\n\r\n    /**\r\n     * Asignar la direccin del usuario coordinador\r\n     * @param addr Direccion del usuario coordinador\r\n     */\r\n    function setCoordinador(address addr) public soloOwner soloAbierta {\r\n        coordinador = addr;\r\n    }\r\n\r\n    /**\r\n     * Cerrar la asignatura\r\n     */\r\n    function cerrar() public soloCoordinador {\r\n        cerrada = true;\r\n    }\r\n\r\n    /**\r\n     * Aadir un profesor nuevo\r\n     * Impedir que se pueda meter un nombre vacio\r\n     * @param _addr Direccion del profesor\r\n     * @param _nombre El nombre del profesor\r\n     */\r\n    function addProfesor(address _addr, string memory _nombre)\r\n        public\r\n        soloOwner\r\n        soloAbierta\r\n    {\r\n        require(bytes(datosProfesor[_addr]).length == 0, \"Profesor ya creado\");\r\n        require(\r\n            bytes(_nombre).length != 0,\r\n            \"Nombre de profesor no puede ser vacio\"\r\n        );\r\n\r\n        datosProfesor[_addr] = _nombre;\r\n        profesores.push(_addr);\r\n    }\r\n\r\n    /**\r\n     * Los alumnos pueden automatricularse con el metodo automatricula\r\n     * Impide que se pueda meter un nombre o un DNI vacios\r\n     * El DNI debe ser unico\r\n     * @param _nombre Nombre del alumno\r\n     * @param _dni DNI del alumno\r\n     * @param _email email del alumno\r\n     */\r\n    function automatricula(\r\n        string memory _nombre,\r\n        string memory _dni,\r\n        string memory _email\r\n    ) public soloNoMatriculados soloAbierta {\r\n        _matricular(msg.sender, _nombre, _dni, _email);\r\n    }\r\n\r\n    /**\r\n     * El owner puede matricular alumnos\r\n     * Impide que se pueda meter un nombre o DNI vacios\r\n     * El valor del DNI debe ser unico\r\n     * @param _addr address del alumno\r\n     * @param _nombre Nombre del alumno\r\n     * @param _dni DNI del alumno\r\n     * @param _email email del alumno\r\n     */\r\n    function matricular(\r\n        address _addr,\r\n        string memory _nombre,\r\n        string memory _dni,\r\n        string memory _email\r\n    ) public soloOwner soloNoMatriculados soloAbierta {\r\n        _matricular(_addr, _nombre, _dni, _email);\r\n    }\r\n\r\n    function _matricular(\r\n        address _addr,\r\n        string memory _nombre,\r\n        string memory _dni,\r\n        string memory _email\r\n    ) private soloNoMatriculados soloAbierta {\r\n        require(bytes(_nombre).length != 0, \"El nombre no puede ser vacio\");\r\n        require(bytes(_dni).length != 0, \"El DNI no puede ser vacio\");\r\n\r\n        if (dniUsados[_dni] != address(0x0)) {\r\n            revert DNIDuplicadoError({dni: _dni});\r\n        }\r\n        DatosAlumno memory datos = DatosAlumno(_nombre, _dni, _email);\r\n        datosAlumno[_addr] = datos;\r\n        dniUsados[_dni] = _addr;\r\n        matriculas.push(_addr);\r\n    }\r\n\r\n    /**\r\n     * El numero de alumnos matriculados\r\n     * @return El numero de alumnos matriculados\r\n     */\r\n    function matriculasLength() public view returns (uint256) {\r\n        return matriculas.length;\r\n    }\r\n\r\n    /**\r\n     * Permite a un alumno obtener sus propios datos\r\n     * @return _nombre Nombre del alumno\r\n     * @return _dni DNI del alumno\r\n     * @return _email email del alumno que invoca al metodo\r\n     */\r\n    function quienSoy()\r\n        public\r\n        view\r\n        soloMatriculados\r\n        returns (\r\n            string memory _nombre,\r\n            string memory _dni,\r\n            string memory _email\r\n        )\r\n    {\r\n        DatosAlumno memory datos = datosAlumno[msg.sender];\r\n        _nombre = datos.nombre;\r\n        _dni = datos.dni;\r\n        _email = datos.email;\r\n    }\r\n\r\n    /**\r\n     * Crear una prueba de evaluacion de la asignatura\r\n     * Las evaluaciones se meten en el array de evaluaciones y nos referiremos a ellas por su posicion en el array.\r\n     * @param _nombre Nombre de la evaluacion\r\n     * @param _fecha Fecha de evaluacion\r\n     * @param _porcentaje Porcentaje de puntos que proporciona a la nota final\r\n     * @param _minimo Nota minima necesaria para aprobar\r\n     * @return Posicion en el array de evaluaciones\r\n     */\r\n    function creaEvaluacion(\r\n        string memory _nombre,\r\n        uint256 _fecha,\r\n        uint256 _porcentaje,\r\n        uint256 _minimo\r\n    ) public soloCoordinador soloAbierta returns (uint256) {\r\n        require(\r\n            bytes(_nombre).length != 0,\r\n            \"El nombre de la evaluacion no puede ser vacio\"\r\n        );\r\n        evaluaciones.push(Evaluacion(_nombre, _fecha, _porcentaje, _minimo));\r\n        return evaluaciones.length - 1;\r\n    }\r\n\r\n    /**\r\n     * Actualiza una evaluacion ya existente. (Funcin para Dapp_Full)\r\n     * Dada la posicion de la evaluacin, modifica sus valores.\r\n     * @param _nombre Nombre de la evaluacion\r\n     * @param _fecha Fecha de evaluacion\r\n     * @param _porcentaje Porcentaje de puntos que proporciona a la nota final\r\n     * @param _minimo Nota minima necesaria para aprobar\r\n     */\r\n    function cambiarEvaluacion(\r\n        uint256 _posicion,\r\n        string memory _nombre,\r\n        uint256 _fecha,\r\n        uint256 _porcentaje,\r\n        uint256 _minimo\r\n    ) public soloCoordinador soloAbierta {\r\n        require(\r\n            bytes(_nombre).length != 0,\r\n            \"El nombre de la evaluacion no puede ser vacio\"\r\n        );\r\n        evaluaciones[_posicion] = Evaluacion(\r\n            _nombre,\r\n            _fecha,\r\n            _porcentaje,\r\n            _minimo\r\n        );\r\n    }\r\n\r\n    /**\r\n     * Numero de evaluaciones creadas\r\n     * @return Numero de evaluaciones creadas\r\n     */\r\n    function evaluacionesLength() public view returns (uint256) {\r\n        return evaluaciones.length;\r\n    }\r\n\r\n    /**\r\n     * Poner la nota de un alumno en la evaluacion\r\n     * @param alumno Direccion del alumno\r\n     * @param evaluacion Indice de una evaluacion en el array evaluaciones\r\n     * @param tipo Tipo de nota\r\n     * @param calificacion Calificacion, multiplicada por 100\r\n     */\r\n    function califica(\r\n        address alumno,\r\n        uint256 evaluacion,\r\n        TipoNota tipo,\r\n        uint256 calificacion\r\n    ) public soloProfesor soloAbierta {\r\n        require(estaMatriculado(alumno), \"Alumno no matriculado.\");\r\n        require(evaluacion < evaluaciones.length, \"La evaluacion no existe.\");\r\n        require(calificacion <= 1000, \"La nota supera el maximo permitido\");\r\n\r\n        Nota memory nota = Nota(tipo, calificacion);\r\n        calificaciones[alumno][evaluacion] = nota;\r\n    }\r\n\r\n    /**\r\n     * Devuelve el tipo de nota y la calificacion que ha sacado el alumno que invoca el metodo en la evaluacion pasada como parametro\r\n     * @param evaluacion Indice de una evaluacion en el array de evaluaciones\r\n     * @return tipo Tipo de nota que ha sacado el alumno\r\n     * @return calificacion Calificacion que ha sacado el alumno\r\n     */\r\n    function miNota(uint256 evaluacion)\r\n        public\r\n        view\r\n        soloMatriculados\r\n        returns (TipoNota tipo, uint256 calificacion)\r\n    {\r\n        require(\r\n            evaluacion < evaluaciones.length,\r\n            \"El indice de la evaluacion no existe.\"\r\n        );\r\n\r\n        Nota memory nota = calificaciones[msg.sender][evaluacion];\r\n        tipo = nota.tipo;\r\n        calificacion = nota.calificacion;\r\n    }\r\n\r\n    /**\r\n     * Devuelve la nota final del alumno que llama a este metodo\r\n     * Si el tipo de nota de alguna de las evaluaciones es Empty, este metodo devuelve (Empty,0)\r\n     * Si todas las calificaciones son NP, devuleve (NP,0)\r\n     * Si la nota final es superior a 499 y hay alguna evaluacion NP, entonces devuelve como maximo 499.\r\n     *\r\n     * @return tipo Tipo de nota que ha sacado el alumno\r\n     * @return calificacion Calificacion que ha sacado el alumno\r\n     */\r\n    function miNotaFinal()\r\n        public\r\n        view\r\n        soloMatriculados\r\n        returns (TipoNota tipo, uint256 calificacion)\r\n    {\r\n        //return _notaFinal(msg.sender);\r\n        return _notaFinal(msg.sender);\r\n    }\r\n\r\n    /**\r\n     * Devuelve la nota final del alumno indicado\r\n     * @param _addr address del alumno\r\n     * @return tipo Tipo de nota que ha sacado el alumno\r\n     * @return calificacion que ha sacado el alumno\r\n     */\r\n    function notaFinal(address _addr)\r\n        public\r\n        view\r\n        returns (TipoNota tipo, uint256 calificacion)\r\n    {\r\n        return _notaFinal(_addr);\r\n    }\r\n\r\n    function _notaFinal(address _addr)\r\n        private\r\n        view\r\n        returns (TipoNota tipo, uint256 calificacion)\r\n    {\r\n        tipo = TipoNota.NP;\r\n\r\n        for (uint256 i = 0; i < evaluaciones.length; i++) {\r\n            if (calificaciones[_addr][i].tipo == TipoNota.Empty) {\r\n                return (TipoNota.Empty, 0);\r\n            }\r\n            if (calificaciones[_addr][i].tipo == TipoNota.Normal) {\r\n                tipo = TipoNota.Normal;\r\n                continue;\r\n            }\r\n        }\r\n        if (tipo == TipoNota.NP) {\r\n            return (tipo, 0);\r\n        }\r\n\r\n        bool suspenso = false;\r\n        uint256 nota = 0;\r\n\r\n        for (uint256 i = 0; i < evaluaciones.length; i++) {\r\n            if (\r\n                calificaciones[_addr][i].calificacion < evaluaciones[i].minimo\r\n            ) {\r\n                suspenso = true;\r\n            }\r\n            nota +=\r\n                (calificaciones[_addr][i].calificacion *\r\n                    evaluaciones[i].porcentaje) /\r\n                100;\r\n        }\r\n        if (suspenso && nota > 499) {\r\n            nota = 499;\r\n        }\r\n\r\n        tipo = TipoNota.Normal;\r\n        calificacion = nota;\r\n    }\r\n\r\n    /**\r\n     * Consulta si una direccion pertenece a un alumno matriculado\r\n     * @param alumno Direccion del alumno\r\n     * @return true Si es un alumno matriculado\r\n     */\r\n    function estaMatriculado(address alumno) private view returns (bool) {\r\n        string memory _nombre = datosAlumno[alumno].nombre;\r\n        return bytes(_nombre).length != 0;\r\n    }\r\n\r\n    /**\r\n     * Numero de profesores aadidos\r\n     * @return El numero de profesores aadidos\r\n     */\r\n    function profesoresLength() public view returns (uint256) {\r\n        return profesores.length;\r\n    }\r\n\r\n    function senderMsg() public view returns (address) {\r\n        return msg.sender;\r\n    }\r\n\r\n    /**\r\n     * Modificador para que una funcion solo la pueda ejecutar el owner\r\n     * Se usa en set Coordinador y addProfesor\r\n     */\r\n    modifier soloOwner() {\r\n        require(msg.sender == owner, \"Solo permitido al owner\");\r\n        _;\r\n    }\r\n\r\n    /**\r\n     * Modificador para que una funcion solo la pueda ejecutar el coordinador\r\n     * Se usa en cerrar y creaEvaluacion\r\n     */\r\n    modifier soloCoordinador() {\r\n        require(msg.sender == coordinador, \"Solo permitido a un coordinador\");\r\n        _;\r\n    }\r\n\r\n    /**\r\n     * Modificador para que una funcion solo la pueda ejecutar el profesor\r\n     * Se usa en califica\r\n     */\r\n    modifier soloProfesor() {\r\n        string memory _nombre = datosProfesor[msg.sender];\r\n        require(bytes(_nombre).length != 0, \"Solo permitido a un profesor\");\r\n        _;\r\n    }\r\n\r\n    /**\r\n     * Modificador para que una funcion solo la pueda ejecutar un alumno matriculado\r\n     */\r\n    modifier soloMatriculados() {\r\n        require(\r\n            estaMatriculado(msg.sender),\r\n            \"Solo permitido a alumnos matriculados\"\r\n        );\r\n        _;\r\n    }\r\n\r\n    /**\r\n     * Modificador para que una funcion solo la pueda ejecutar un alumno no matriculado\r\n     */\r\n    modifier soloNoMatriculados() {\r\n        require(\r\n            !estaMatriculado(msg.sender),\r\n            \"Solo permitido a alumnos NO matriculados\"\r\n        );\r\n        _;\r\n    }\r\n\r\n    /**\r\n     * Modificador para que una funcion solo la pueda ejecutar si la asignatura no esta cerrada\r\n     * Se usa en setCooredinador, addProfesor, automatricula, creaEvaluacion y califica\r\n     */\r\n    modifier soloAbierta() {\r\n        require(!cerrada, \"Solo permitido si la asignatura no esta cerrada\");\r\n        _;\r\n    }\r\n\r\n    /**\r\n     * No se permite la recepcin de dinero\r\n     */\r\n    receive() external payable {\r\n        revert(\"No se permite la recepcion de dinero\");\r\n    }\r\n}\r\n",
  "sourcePath": "C:\\Users\\alvar\\OneDrive\\Documentos\\UNIVERSIDAD_UPM\\BCDA\\BCDA_Dapp_Asignatura_Lite_2022\\truffle\\contracts\\Asignatura.sol",
  "compiler": {
    "name": "solc",
    "version": "0.8.17+commit.8df45f5f.Emscripten.clang"
  },
  "schemaVersion": "3.4.9",
  "updatedAt": "2023-01-11T15:29:54.789Z",
  "networkType": "ethereum",
  "devdoc": {
    "kind": "dev",
    "methods": {
      "addProfesor(address,string)": {
        "params": {
          "_addr": "Direccion del profesor",
          "_nombre": "El nombre del profesor"
        }
      },
      "automatricula(string,string,string)": {
        "params": {
          "_dni": "DNI del alumno",
          "_email": "email del alumno",
          "_nombre": "Nombre del alumno"
        }
      },
      "califica(address,uint256,uint8,uint256)": {
        "params": {
          "alumno": "Direccion del alumno",
          "calificacion": "Calificacion, multiplicada por 100",
          "evaluacion": "Indice de una evaluacion en el array evaluaciones",
          "tipo": "Tipo de nota"
        }
      },
      "cambiarEvaluacion(uint256,string,uint256,uint256,uint256)": {
        "params": {
          "_fecha": "Fecha de evaluacion",
          "_minimo": "Nota minima necesaria para aprobar",
          "_nombre": "Nombre de la evaluacion",
          "_porcentaje": "Porcentaje de puntos que proporciona a la nota final"
        }
      },
      "creaEvaluacion(string,uint256,uint256,uint256)": {
        "params": {
          "_fecha": "Fecha de evaluacion",
          "_minimo": "Nota minima necesaria para aprobar",
          "_nombre": "Nombre de la evaluacion",
          "_porcentaje": "Porcentaje de puntos que proporciona a la nota final"
        },
        "returns": {
          "_0": "Posicion en el array de evaluaciones"
        }
      },
      "evaluacionesLength()": {
        "returns": {
          "_0": "Numero de evaluaciones creadas"
        }
      },
      "matricular(address,string,string,string)": {
        "params": {
          "_addr": "address del alumno",
          "_dni": "DNI del alumno",
          "_email": "email del alumno",
          "_nombre": "Nombre del alumno"
        }
      },
      "matriculasLength()": {
        "returns": {
          "_0": "El numero de alumnos matriculados"
        }
      },
      "miNota(uint256)": {
        "params": {
          "evaluacion": "Indice de una evaluacion en el array de evaluaciones"
        },
        "returns": {
          "calificacion": "Calificacion que ha sacado el alumno",
          "tipo": "Tipo de nota que ha sacado el alumno"
        }
      },
      "miNotaFinal()": {
        "returns": {
          "calificacion": "Calificacion que ha sacado el alumno",
          "tipo": "Tipo de nota que ha sacado el alumno"
        }
      },
      "notaFinal(address)": {
        "params": {
          "_addr": "address del alumno"
        },
        "returns": {
          "calificacion": "que ha sacado el alumno",
          "tipo": "Tipo de nota que ha sacado el alumno"
        }
      },
      "profesoresLength()": {
        "returns": {
          "_0": "El numero de profesores aadidos"
        }
      },
      "quienSoy()": {
        "returns": {
          "_dni": "DNI del alumno",
          "_email": "email del alumno que invoca al metodo",
          "_nombre": "Nombre del alumno"
        }
      },
      "setCoordinador(address)": {
        "params": {
          "addr": "Direccion del usuario coordinador"
        }
      }
    },
    "version": 1
  },
  "userdoc": {
    "kind": "user",
    "methods": {
      "addProfesor(address,string)": {
        "notice": "Aadir un profesor nuevo Impedir que se pueda meter un nombre vacio"
      },
      "automatricula(string,string,string)": {
        "notice": "Los alumnos pueden automatricularse con el metodo automatricula Impide que se pueda meter un nombre o un DNI vacios El DNI debe ser unico"
      },
      "califica(address,uint256,uint8,uint256)": {
        "notice": "Poner la nota de un alumno en la evaluacion"
      },
      "cambiarEvaluacion(uint256,string,uint256,uint256,uint256)": {
        "notice": "Actualiza una evaluacion ya existente. (Funcin para Dapp_Full) Dada la posicion de la evaluacin, modifica sus valores."
      },
      "cerrar()": {
        "notice": "Cerrar la asignatura"
      },
      "creaEvaluacion(string,uint256,uint256,uint256)": {
        "notice": "Crear una prueba de evaluacion de la asignatura Las evaluaciones se meten en el array de evaluaciones y nos referiremos a ellas por su posicion en el array."
      },
      "dniUsados(string)": {
        "notice": "Valores de DNI usados: Clave -> DNI Valor -> direccin del alumno con ese DNI"
      },
      "evaluacionesLength()": {
        "notice": "Numero de evaluaciones creadas"
      },
      "matricular(address,string,string,string)": {
        "notice": "El owner puede matricular alumnos Impide que se pueda meter un nombre o DNI vacios El valor del DNI debe ser unico"
      },
      "matriculasLength()": {
        "notice": "El numero de alumnos matriculados"
      },
      "miNota(uint256)": {
        "notice": "Devuelve el tipo de nota y la calificacion que ha sacado el alumno que invoca el metodo en la evaluacion pasada como parametro"
      },
      "miNotaFinal()": {
        "notice": "Devuelve la nota final del alumno que llama a este metodo Si el tipo de nota de alguna de las evaluaciones es Empty, este metodo devuelve (Empty,0) Si todas las calificaciones son NP, devuleve (NP,0) Si la nota final es superior a 499 y hay alguna evaluacion NP, entonces devuelve como maximo 499."
      },
      "notaFinal(address)": {
        "notice": "Devuelve la nota final del alumno indicado"
      },
      "owner()": {
        "notice": "address del usuario que ha desplegado el contrato. El contrato lo delpliega el owner."
      },
      "profesoresLength()": {
        "notice": "Numero de profesores aadidos"
      },
      "quienSoy()": {
        "notice": "Permite a un alumno obtener sus propios datos"
      },
      "setCoordinador(address)": {
        "notice": "Asignar la direccin del usuario coordinador"
      }
    },
    "version": 1
  }
}